:100000000C9434000C943E000C943E000C943E0082
:100010000C943E000C943E000C943E000C943E0068
:100020000C943E000C943E000C943E000C943E0058
:100030000C943E000C943E000C943E000C943E0048
:100040000C943E000C943E000C943E000C943E0038
:100050000C943E000C943E000C943E000C943E0028
:100060000C943E000C943E0011241FBECFEFD8E04C
:10007000DEBFCDBF0E9472000C94B7000C9400004C
:100080002AE0829FC0011124885A9D4F23E0969553
:1000900087952A95E1F781508093B3008FEF99E619
:1000A00028E1815090402040E1F700C00000089511
:1000B00083E88093B00084E08093B100239A8AEBB8
:1000C0008093B3002FEF89E698E121508040904063
:1000D000E1F700C0000080E480937C0086E8809314
:1000E0007A0008950E945800CAE580917C008E7FB6
:1000F00080937C0080917A00806480937A00809164
:100100007A0086FDFCCF8091780090917900209153
:100110007C00216020937C0020917A002064209351
:100120007A0020917A0026FDFCCF20917800309152
:100130007900A90148535F4F4817590720F4C43B81
:1001400048F4CF5F07C088539F4F8217930768F624
:10015000C111C1508C2F0E9440002FEF83EC99E019
:10016000215080409040E1F700C00000BECFF894DD
:02017000FFCFBF
:00000001FF
